{
    "txid": "fa477d3ff1c8a3514b7b25e07aa434503a5a5e8af3a2dd7773da690863dab42a",
    "hash": "fa477d3ff1c8a3514b7b25e07aa434503a5a5e8af3a2dd7773da690863dab42a",
    "version": 2,
    "size": 201,
    "vsize": 201,
    "locktime": 0,
    "vin": [
        {
            "txid": "5897de6bd6027a475eadd57019d4e6872c396d0716c4875a5f1a6fcfdf385c1f",
            "vout": 0,
            "scriptSig": {
                "asm": "",
                "hex": ""
            },
            "sequence": 4294967295
        }, 
        {
            "txid": "bf829c6bcf84579331337659d31f89dfd138f7f7785802d5501c92333145ca7c",
            "vout": 18,
            "scriptSig": {
                "asm": "",
                "hex": ""
            },
            "sequence": 4294967295
        }, 
        {
            "txid": "22a6f904655d53ae2ff70e701a0bbd90aa3975c0f40bfc6cc996a9049e31cdfc",
            "vout": 1,
            "scriptSig": {
                "asm": "",
                "hex": ""
            },
            "sequence": 4294967295
        }
    ],
    "vout": [
        {
            "value": 0.1800,
            "n": 0,
            "scriptPubKey": {
                "asm": "OP_DUP OP_HASH160 b7123f4c1cfc7cf46d6b6782b5bd612b967de2a4 OP_EQUALVERIFY OP_CHECKSIG",
                "hex": "76a914b7123f4c1cfc7cf46d6b6782b5bd612b967de2a488ac",
                "reqSigs": 1,
                "type": "pubkeyhash",
                "addresses": [
                    "XU3EN6Fa4n5xVxgPYqzNVGDMdp7ycCFSBs"
                ]
            }
        }, 
        {
            "value": 4.0000,
            "n": 1,
            "scriptPubKey": {
                "asm": "OP_DUP OP_HASH160 cdda69da522ca7119601e6adbf148c45cded3cc3 OP_EQUALVERIFY OP_CHECKSIG",
                "hex": "76a914cdda69da522ca7119601e6adbf148c45cded3cc388ac",
                "reqSigs": 1,
                "type": "pubkeyhash",
                "addresses": [
                    "XW7h274PZtRXqPZQZjHNH6UQGpgKHoBofG"
                ]
            }
        }
    ],
    "hex": "02000000031f5c38dfcf6f1a5f5a87c416076d392c87e6d41970d5ad5e477a02d66bde97580000000000ffffffff7cca453133921c50d5025878f7f738d1df891fd359763331935784cf6b9c82bf1200000000fffffffffccd319e04a996c96cfc0bf4c07539aa90bd0b1a700ef72fae535d6504f9a6220100000000ffffffff0208070000000000001976a914b7123f4c1cfc7cf46d6b6782b5bd612b967de2a488ac409c0000000000001976a914cdda69da522ca7119601e6adbf148c45cded3cc388ac00000000"
}
