{
    "txid": "afa7e37c624ac8348ab810d6097be84d622369f1584a6ef5b11ab6f5c19e5b6f",
    "hash": "afa7e37c624ac8348ab810d6097be84d622369f1584a6ef5b11ab6f5c19e5b6f",
    "version": 1,
    "size": 124,
    "vsize": 124,
    "locktime": 0,
    "vin": [
    ],
    "vout": [
        {
            "value": 1.0000,
            "n": 0,
            "scriptPubKey": {
                "asm": "2 02a5613bd857b7048924264d1e70e08fb2a7e6527d32b7ab1bb993ac59964ff397 021ac43c7ff740014c3b33737ede99c967e4764553d1b2b83db77c83b8715fa72d 02df2089105c77f266fa11a9d33f05c735234075f2e8780824c6b709415f9fb485 3 OP_CHECKMULTISIG",
                "hex": "522102a5613bd857b7048924264d1e70e08fb2a7e6527d32b7ab1bb993ac59964ff39721021ac43c7ff740014c3b33737ede99c967e4764553d1b2b83db77c83b8715fa72d2102df2089105c77f266fa11a9d33f05c735234075f2e8780824c6b709415f9fb48553ae",
                "reqSigs": 2,
                "type": "multisig",
                "addresses": [
                    "XS9VsBUhVnnbVoteR5Lp5dHLAvSKcmWB5G", 
                    "XRt8qHg5Nq8UjjRnUBDfSgdiNBE8S4KbYx", 
                    "XEh9S4xnr4KFdbvNpWb4qp99ejjYexNiUQ"
                ]
            }
        }
    ],
    "hex": "010000000001102700000000000069522102a5613bd857b7048924264d1e70e08fb2a7e6527d32b7ab1bb993ac59964ff39721021ac43c7ff740014c3b33737ede99c967e4764553d1b2b83db77c83b8715fa72d2102df2089105c77f266fa11a9d33f05c735234075f2e8780824c6b709415f9fb48553ae00000000"
}
