{
    "txid": "635e4ef1c0babc70df9f373852aecfce7184088a67ef05d06652246f937194d4",
    "hash": "635e4ef1c0babc70df9f373852aecfce7184088a67ef05d06652246f937194d4",
    "version": 2,
    "size": 85,
    "vsize": 85,
    "locktime": 0,
    "vin": [
        {
            "txid": "5897de6bd6027a475eadd57019d4e6872c396d0716c4875a5f1a6fcfdf385c1f",
            "vout": 0,
            "scriptSig": {
                "asm": "",
                "hex": ""
            },
            "sequence": 4294967293
        }
    ],
    "vout": [
        {
            "value": 0.1800,
            "n": 0,
            "scriptPubKey": {
                "asm": "OP_DUP OP_HASH160 b7123f4c1cfc7cf46d6b6782b5bd612b967de2a4 OP_EQUALVERIFY OP_CHECKSIG",
                "hex": "76a914b7123f4c1cfc7cf46d6b6782b5bd612b967de2a488ac",
                "reqSigs": 1,
                "type": "pubkeyhash",
                "addresses": [
                    "XU3EN6Fa4n5xVxgPYqzNVGDMdp7ycCFSBs"
                ]
            }
        }
    ],
    "hex": "02000000011f5c38dfcf6f1a5f5a87c416076d392c87e6d41970d5ad5e477a02d66bde97580000000000fdffffff0108070000000000001976a914b7123f4c1cfc7cf46d6b6782b5bd612b967de2a488ac00000000"
}
