{
    "txid": "96cd46fac175192bc4acc4ba5396b14950ae0c12cd9f7244922b6afef36e38c2",
    "hash": "96cd46fac175192bc4acc4ba5396b14950ae0c12cd9f7244922b6afef36e38c2",
    "version": 1,
    "size": 223,
    "vsize": 223,
    "locktime": 0,
    "vin": [
        {
            "txid": "4d49a71ec9da436f71ec4ee231d04f292a29cd316f598bb7068feccabdc59485",
            "vout": 0,
            "scriptSig": {
                "asm": "3044022030b1b40c8c51d1ae92bebf117c70a337a8451fbd9eed297062ac264ba4632c9c02200728dc83e98b0c5ac9094b553c67bfcf2ec6bc833dafcb82accbc0f7b227b783[ALL|FORKID] 0479be667ef9dcbbac55a06295ce870b07029bfcdb2dce28d959f2815b16f81798483ada7726a3c4655da4fbfc0e1108a8fd17b448a68554199c47d08ffb10d4b8",
                "hex": "473044022030b1b40c8c51d1ae92bebf117c70a337a8451fbd9eed297062ac264ba4632c9c02200728dc83e98b0c5ac9094b553c67bfcf2ec6bc833dafcb82accbc0f7b227b78311410479be667ef9dcbbac55a06295ce870b07029bfcdb2dce28d959f2815b16f81798483ada7726a3c4655da4fbfc0e1108a8fd17b448a68554199c47d08ffb10d4b8"
            },
            "sequence": 4294967295
        }
    ],
    "vout": [
        {
            "value": 0.0010,
            "n": 0,
            "scriptPubKey": {
                "asm": "OP_DUP OP_HASH160 99104686dbef171700d3daf820863ec6f0c92fb1 OP_EQUALVERIFY OP_CHECKSIG",
                "hex": "76a91499104686dbef171700d3daf820863ec6f0c92fb188ac",
                "reqSigs": 1,
                "type": "pubkeyhash",
                "addresses": [
                    "XRJZjLT7ZQyf9VwNnZGKgc9rb857g1t9UH"
                ]
            }
        }
    ],
    "hex": "01000000018594c5bdcaec8f06b78b596f31cd292a294fd031e24eec716f43dac91ea7494d000000008a473044022030b1b40c8c51d1ae92bebf117c70a337a8451fbd9eed297062ac264ba4632c9c02200728dc83e98b0c5ac9094b553c67bfcf2ec6bc833dafcb82accbc0f7b227b78311410479be667ef9dcbbac55a06295ce870b07029bfcdb2dce28d959f2815b16f81798483ada7726a3c4655da4fbfc0e1108a8fd17b448a68554199c47d08ffb10d4b8ffffffff010a000000000000001976a91499104686dbef171700d3daf820863ec6f0c92fb188ac00000000"
}
