{
    "txid": "1b903f6ece2add1a5f7145a939dcabf738110c317968f224734937ad5e53523d",
    "hash": "1b903f6ece2add1a5f7145a939dcabf738110c317968f224734937ad5e53523d",
    "version": 1,
    "size": 85,
    "vsize": 85,
    "locktime": 0,
    "vin": [
        {
            "txid": "4d49a71ec9da436f71ec4ee231d04f292a29cd316f598bb7068feccabdc59485",
            "vout": 0,
            "scriptSig": {
                "asm": "",
                "hex": ""
            },
            "sequence": 4294967295
        }
    ],
    "vout": [
        {
            "value": 0.0010,
            "n": 0,
            "scriptPubKey": {
                "asm": "OP_DUP OP_HASH160 99104686dbef171700d3daf820863ec6f0c92fb1 OP_EQUALVERIFY OP_CHECKSIG",
                "hex": "76a91499104686dbef171700d3daf820863ec6f0c92fb188ac",
                "reqSigs": 1,
                "type": "pubkeyhash",
                "addresses": [
                    "XRJZjLT7ZQyf9VwNnZGKgc9rb857g1t9UH"
                ]
            }
        }
    ],
    "hex": "01000000018594c5bdcaec8f06b78b596f31cd292a294fd031e24eec716f43dac91ea7494d0000000000ffffffff010a000000000000001976a91499104686dbef171700d3daf820863ec6f0c92fb188ac00000000"
}
