{
    "txid": "7d958e0b8d79f1c6d156b3038647f81bd94c955577452ac7e1906f29eb58869f",
    "hash": "7d958e0b8d79f1c6d156b3038647f81bd94c955577452ac7e1906f29eb58869f",
    "version": 2,
    "size": 176,
    "vsize": 176,
    "locktime": 0,
    "vin": [
        {
            "txid": "5897de6bd6027a475eadd57019d4e6872c396d0716c4875a5f1a6fcfdf385c1f",
            "vout": 0,
            "scriptSig": {
                "asm": "",
                "hex": ""
            },
            "sequence": 4294967295
        }
    ],
    "vout": [
        {
            "value": 0.1800,
            "n": 0,
            "scriptPubKey": {
                "asm": "OP_DUP OP_HASH160 b7123f4c1cfc7cf46d6b6782b5bd612b967de2a4 OP_EQUALVERIFY OP_CHECKSIG",
                "hex": "76a914b7123f4c1cfc7cf46d6b6782b5bd612b967de2a488ac",
                "reqSigs": 1,
                "type": "pubkeyhash",
                "addresses": [
                    "XU3EN6Fa4n5xVxgPYqzNVGDMdp7ycCFSBs"
                ]
            }
        }, 
        {
            "value": 0.0000,
            "n": 1,
            "scriptPubKey": {
                "asm": "OP_RETURN 54686973204f505f52455455524e207472616e73616374696f6e206f7574707574207761732063726561746564206279206d6f646966696564206372656174657261777472616e73616374696f6e2e",
                "hex": "6a4c4f54686973204f505f52455455524e207472616e73616374696f6e206f7574707574207761732063726561746564206279206d6f646966696564206372656174657261777472616e73616374696f6e2e",
                "type": "nulldata"
            }
        }
    ],
    "hex": "02000000011f5c38dfcf6f1a5f5a87c416076d392c87e6d41970d5ad5e477a02d66bde97580000000000ffffffff0208070000000000001976a914b7123f4c1cfc7cf46d6b6782b5bd612b967de2a488ac0000000000000000526a4c4f54686973204f505f52455455524e207472616e73616374696f6e206f7574707574207761732063726561746564206279206d6f646966696564206372656174657261777472616e73616374696f6e2e00000000"
}
